{
  "contractName": "SimpleNumber",
  "abi": [
    {
      "anonymous": false,
      "inputs": [
        {
          "indexed": false,
          "name": "oldNumber",
          "type": "uint256"
        },
        {
          "indexed": false,
          "name": "newNumber",
          "type": "uint256"
        }
      ],
      "name": "NumberChanges",
      "type": "event"
    },
    {
      "constant": false,
      "inputs": [
        {
          "name": "_newNumber",
          "type": "uint256"
        }
      ],
      "name": "changeNumber",
      "outputs": [],
      "payable": false,
      "stateMutability": "nonpayable",
      "type": "function"
    },
    {
      "constant": true,
      "inputs": [],
      "name": "getDouble",
      "outputs": [
        {
          "name": "",
          "type": "uint256"
        }
      ],
      "payable": false,
      "stateMutability": "view",
      "type": "function"
    }
  ],
  "bytecode": "0x608060405234801561001057600080fd5b50610124806100206000396000f3006080604052600436106049576000357c0100000000000000000000000000000000000000000000000000000000900463ffffffff16806307391dd614604e578063a3f1bd35146078575b600080fd5b348015605957600080fd5b5060766004803603810190808035906020019092919050505060a0565b005b348015608357600080fd5b50608a60eb565b6040518082815260200191505060405180910390f35b7f6135491976e3ecf8b908c631e5fee23190f71c68f85d95d571bfd1b59705247860005482604051808381526020018281526020019250505060405180910390a18060008190555050565b60006002600054029050905600a165627a7a72305820281109f91cfad903a48125af95ad60ffb655b49218c9fcc1da7e0271d8bcb3e00029",
  "source": "pragma solidity ^0.4.24;\n\ncontract SimpleNumber {\n\n  uint number;\n\n  event NumberChanges(\n      uint oldNumber,\n      uint newNumber\n  );\n\n  function changeNumber(uint _newNumber) public{\n    emit NumberChanges(number, _newNumber);\n    number = _newNumber;\n  }\n\n  function getDouble() view public returns (uint) {\n    return number*2;\n  }\n\n}\n",
  "sourcePath": "/Users/phiman/Projects/workshop/trading-app/contracts/SimpleNumber.sol",
  "compiler": {
    "name": "solc",
    "version": "0.4.24+commit.e67f0147.Emscripten.clang"
  },
  "schemaVersion": "2.0.1",
  "updatedAt": "2018-10-14T12:22:46.764Z"
}