{
  "contractName": "Trade",
  "abi": [
    {
      "inputs": [],
      "payable": false,
      "stateMutability": "nonpayable",
      "type": "constructor"
    },
    {
      "constant": false,
      "inputs": [
        {
          "name": "buyer",
          "type": "address"
        },
        {
          "name": "itemCount",
          "type": "uint256"
        }
      ],
      "name": "sell",
      "outputs": [],
      "payable": false,
      "stateMutability": "nonpayable",
      "type": "function"
    },
    {
      "constant": true,
      "inputs": [],
      "name": "getBalance",
      "outputs": [
        {
          "name": "",
          "type": "uint256"
        }
      ],
      "payable": false,
      "stateMutability": "view",
      "type": "function"
    },
    {
      "constant": true,
      "inputs": [],
      "name": "getItemCount",
      "outputs": [
        {
          "name": "",
          "type": "uint256"
        }
      ],
      "payable": false,
      "stateMutability": "view",
      "type": "function"
    }
  ],
  "bytecode": "0x60806040526005600255600a60035534801561001a57600080fd5b506003546002540260008073e050f4397afa2d73cc00003f754405e5764010e773ffffffffffffffffffffffffffffffffffffffff168152602001908152602001600020819055506003546002540260008073c2d7cf95645d33006175b78989035c7c9061d3f973ffffffffffffffffffffffffffffffffffffffff168152602001908152602001600020819055506003546001600073e050f4397afa2d73cc00003f754405e5764010e773ffffffffffffffffffffffffffffffffffffffff168152602001908152602001600020819055506003546001600073c2d7cf95645d33006175b78989035c7c9061d3f973ffffffffffffffffffffffffffffffffffffffff16815260200190815260200160002081905550610473806101406000396000f300608060405260043610610057576000357c0100000000000000000000000000000000000000000000000000000000900463ffffffff16806312065fe01461005c5780636c197ff5146100875780637749cf23146100d4575b600080fd5b34801561006857600080fd5b506100716100ff565b6040518082815260200191505060405180910390f35b34801561009357600080fd5b506100d2600480360381019080803573ffffffffffffffffffffffffffffffffffffffff16906020019092919080359060200190929190505050610145565b005b3480156100e057600080fd5b506100e9610400565b6040518082815260200191505060405180910390f35b60008060003373ffffffffffffffffffffffffffffffffffffffff1673ffffffffffffffffffffffffffffffffffffffff16815260200190815260200160002054905090565b80600160003373ffffffffffffffffffffffffffffffffffffffff1673ffffffffffffffffffffffffffffffffffffffff168152602001908152602001600020541015151561019357600080fd5b80600254026000808473ffffffffffffffffffffffffffffffffffffffff1673ffffffffffffffffffffffffffffffffffffffff16815260200190815260200160002054101515156101e457600080fd5b80600160003373ffffffffffffffffffffffffffffffffffffffff1673ffffffffffffffffffffffffffffffffffffffff1681526020019081526020016000205403600160003373ffffffffffffffffffffffffffffffffffffffff1673ffffffffffffffffffffffffffffffffffffffff1681526020019081526020016000208190555080600160008473ffffffffffffffffffffffffffffffffffffffff1673ffffffffffffffffffffffffffffffffffffffff1681526020019081526020016000205401600160008473ffffffffffffffffffffffffffffffffffffffff1673ffffffffffffffffffffffffffffffffffffffff1681526020019081526020016000208190555080600254026000803373ffffffffffffffffffffffffffffffffffffffff1673ffffffffffffffffffffffffffffffffffffffff16815260200190815260200160002054016000803373ffffffffffffffffffffffffffffffffffffffff1673ffffffffffffffffffffffffffffffffffffffff1681526020019081526020016000208190555080600254026000808473ffffffffffffffffffffffffffffffffffffffff1673ffffffffffffffffffffffffffffffffffffffff16815260200190815260200160002054036000808473ffffffffffffffffffffffffffffffffffffffff1673ffffffffffffffffffffffffffffffffffffffff168152602001908152602001600020819055505050565b6000600160003373ffffffffffffffffffffffffffffffffffffffff1673ffffffffffffffffffffffffffffffffffffffff168152602001908152602001600020549050905600a165627a7a7230582080df796c413bba9b46b585b6780e5418fb1264f15c50d5fe0450bd11400d5f6e0029",
  "source": "pragma solidity ^0.4.24;\n\ncontract Trade {\n\n  mapping (address => uint) accountBalance;\n  mapping (address => uint) items;\n  uint UNIT_PRICE = 5;\n  uint UNIT_COUNT = 10;\n\n  //initial seeding of balances and items\n  constructor(){\n    accountBalance[0xe050f4397afa2d73cc00003f754405e5764010e7]=UNIT_PRICE*UNIT_COUNT;\n    accountBalance[0xc2d7cf95645d33006175b78989035c7c9061d3f9]=UNIT_PRICE*UNIT_COUNT;\n\n    items[0xe050f4397afa2d73cc00003f754405e5764010e7]=UNIT_COUNT;\n    items[0xc2d7cf95645d33006175b78989035c7c9061d3f9]=UNIT_COUNT;\n  }\n\n  function sell(address buyer,uint itemCount) public{\n    require(items[msg.sender]>=itemCount);\n    require(accountBalance[buyer]>=UNIT_PRICE*itemCount);\n\n    items[msg.sender]=items[msg.sender]-itemCount;\n    items[buyer]=items[buyer]+itemCount;\n\n    accountBalance[msg.sender]=accountBalance[msg.sender]+UNIT_PRICE*itemCount;\n    accountBalance[buyer]=accountBalance[buyer]-UNIT_PRICE*itemCount;\n  }\n\n  function getBalance() public view returns (uint) {\n    return accountBalance[msg.sender];\n  }\n\n  function getItemCount() public view returns (uint) {\n    return items[msg.sender];\n  }\n\n}\n",
  "sourcePath": "/Users/phiman/Projects/workshop/trading-app/contracts/Trade.sol",
  "compiler": {
    "name": "solc",
    "version": "0.4.24+commit.e67f0147.Emscripten.clang"
  },
  "schemaVersion": "2.0.1",
  "updatedAt": "2018-10-14T12:22:46.554Z"
}