{
  "contractName": "Vote",
  "abi": [
    {
      "constant": false,
      "inputs": [
        {
          "name": "candidate",
          "type": "string"
        }
      ],
      "name": "vote",
      "outputs": [],
      "payable": false,
      "stateMutability": "nonpayable",
      "type": "function"
    },
    {
      "constant": true,
      "inputs": [
        {
          "name": "candidate",
          "type": "string"
        }
      ],
      "name": "getVoteFor",
      "outputs": [
        {
          "name": "",
          "type": "uint256"
        }
      ],
      "payable": false,
      "stateMutability": "view",
      "type": "function"
    }
  ],
  "bytecode": "0x608060405234801561001057600080fd5b506102b8806100206000396000f30060806040526004361061004c576000357c0100000000000000000000000000000000000000000000000000000000900463ffffffff168063a448154c14610051578063fc36e15b146100ce575b600080fd5b34801561005d57600080fd5b506100b8600480360381019080803590602001908201803590602001908080601f0160208091040260200160405190810160405280939291908181526020018383808284378201915050505050509192919290505050610137565b6040518082815260200191505060405180910390f35b3480156100da57600080fd5b50610135600480360381019080803590602001908201803590602001908080601f01602080910402602001604051908101604052809392919081815260200183838082843782019150505050505091929192905050506101ab565b005b600080826040518082805190602001908083835b602083101515610170578051825260208201915060208101905060208303925061014b565b6001836020036101000a0380198251168184511680821785525050505050509050019150509081526020016040518091039020549050919050565b60016000826040518082805190602001908083835b6020831015156101e557805182526020820191506020810190506020830392506101c0565b6001836020036101000a038019825116818451168082178552505050505050905001915050908152602001604051809103902054016000826040518082805190602001908083835b602083101515610252578051825260208201915060208101905060208303925061022d565b6001836020036101000a038019825116818451168082178552505050505050905001915050908152602001604051809103902081905550505600a165627a7a7230582088e27dd4b43b336bb7b034749e47766deedc62708d3a0ddf78b1fb3988eed7c40029",
  "source": "pragma solidity ^0.4.22;\n\ncontract Vote {\n\n  mapping (string => uint) someMapping;\n\n  function vote(string candidate) public {\n    someMapping[candidate]=someMapping[candidate]+1;\n  }\n\n  function getVoteFor(string candidate) public view returns (uint) {\n    return someMapping[candidate];\n  }\n\n}\n",
  "sourcePath": "/Users/phiman/Projects/workshop/voting-app/contracts/Vote.sol",
  "compiler": {
    "name": "solc",
    "version": "0.4.24+commit.e67f0147.Emscripten.clang"
  },
  "schemaVersion": "2.0.1",
  "updatedAt": "2018-10-15T13:43:25.669Z"
}